:020000040800F2
:100000000050002051010008510B0008530B00085C
:10001000550B0008570B0008590B000800000000A2
:10002000000000000000000000000000A1420008E5
:100030005B0B0008000000004143000885430008F6
:100040009901000899010008990100089901000828
:100050009901000899010008990100089901000818
:100060009901000899010008990100089901000808
:1000700099010008990100085D0B00086D0B00084C
:1000800099010008990100089901000899010008E8
:100090009901000899010008990100087D0B0008EA
:1000A00099010008990100089901000899010008C8
:1000B0009901000899010008A90B0008990100089E
:1000C00099010008990100089901000899010008A8
:1000D00099010008B90B000899010008990100086E
:1000E000990100089901000899010008000000002A
:1000F0000000000000000000000000000000000000
:0C01000000000000000000005FF808F1A3
:1001100010B5054C237833B9044B13B10448AFF341
:1001200000800123237010BD90000020000000001B
:100130004C5F000808B5034B1BB103490348AFF3FC
:10014000008008BD00000000940000204C5F000803
:100150000C480D490D4A002302E0D458C450043322
:10016000C4188C42F9D30A4A0A4C002301E01360F8
:100170000432A242FBD302F0C1FC05F0B5FE00F050
:1001800051F87047000000209000002080600008B7
:1001900090000020C4250020FEE7000008B502689A
:1001A000034B9A4200D008BD00F034FEFBE700BFCD
:1001B0000008004008B5642000F03EFEFBE700B5F3
:1001C00091B02822002106A805F086FE00230193A5
:1001D0000293039304930593012206924FF4803314
:1001E00007930A9202220D920E934FF4E0130F939D
:1001F00006A800F057FE80B90F2301930221029157
:10020000002303934FF480620492059301A801F048
:1002100089F820B911B05DF804FBFFF7CBFFFFF7B9
:10022000C9FF000008B500F0E3FDFFF7C8FF00F0CC
:100230005BF800F0B5FA00F0D5FA00F095FB00F09D
:100240000BFC04F007FB094A136843F00103136039
:10025000074B4FF480621A6103F0E6FE00F036FAB5
:1002600003F004FF012000F0E7FDFBE7001000E0D1
:100270000008014000B500F00700C0F1070CBCF118
:10028000040F28BF4FF0040C031D062B0FD9C31E0B
:100290004FF0FF3E0EFA0CF021EA000199400EFAF1
:1002A00003FE22EA0E0241EA02005DF804FB00238D
:1002B000EEE710B54FEA116E50F80E3091FAA1FC3E
:1002C000BCFA8CFC4FEA8C0C0F2404FA0CFC23EAD9
:1002D0000C0391FAA1F1B1FA81F189008A4013432C
:1002E00040F80E3010BD0000F0B58BB0002408942B
:1002F000099403940494059406940794424B9A69D4
:1003000042F020029A619A6902F020020292029A57
:100310009A6942F008029A619A6902F00802019211
:10032000019A9A6942F004029A619B6903F00403FE
:100330000093009B35484FF480534361344E4FF493
:1003400004437361334B03930125049502270597FA
:1003500003A900F001FD304B039304950597069423
:1003600003A9304600F0F8FC2C4B1A6922F00F026A
:100370000F2191FAA1F11A611A6922F0F002F0211D
:1003800091FAA1F11A614FF4807308938DF824500B
:100390008DF825408DF8265008A801F0C5FB4FF4D4
:1003A000007308938DF824508DF825408DF8267041
:1003B00008A801F0B9FB042219493046FFF779FF7C
:1003C000082218493046FFF774FFF36823F48023AE
:1003D00023F40073144A92FAA2F2B2FA82F2954020
:1003E0002B43F360114BD86822460521C0F302204D
:1003F000FFF740FF0001C0B20D4B83F817034FF425
:1004000000021A600BB0F0BD00100240000C014069
:100410000008014010001004840084040000014022
:1004200001000104020002040002040000ED00E0EB
:1004300000E100E084464FF6FF700EE04008013313
:10044000DBB2072B07D810F0010FF7D04AF20102F8
:1004500082EA5000F3E7013989B249B100F47F43E1
:100460001CF8012BC0B24240134498B20023E8E7C5
:10047000704708B500BF012003F094FEFBE70000C1
:1004800008B54FF08042136843F0010313600A4B34
:10049000196841F001011960116A41F010011162FF
:1004A0001A6A42F001021A62012005F0D3F9012014
:1004B00003F078FEF8E700BF0004004008B5012013
:1004C00003F070FE114A1388591C1180B3F57A7F2E
:1004D000F5D90F4C01232370042262700025A5700A
:1004E000E37025710323637106212046FFF7A2FF05
:1004F000084B1880A071000AE071082221460648C6
:1005000004F0D1FA014B1D80D9E700BFAE000020F6
:10051000EC000020AC0000206425002010B505F0A0
:1005200069FC012801D1002215E0FFF743FEFAE73C
:100530001448342102FB01F1431842544FF4FB717B
:10054000598011495960D9604FF48271198119821B
:100550000E4959620132032AEADD10E00134032C0E
:100560000ADC3420074B00FB043005F079FB01283E
:10057000F4D0FFF71FFEF1E7012003F013FE002483
:10058000EDE700BF240200202001002091050008B3
:1005900010B504460323C374024805F0E2F9A082B3
:1005A000002010BD00000020F8B5464B984200D056
:1005B000F8BD05460E4617460C4607E0424B1A7832
:1005C000A1B2284605F0C7F900BF0134BB19A34208
:1005D000EEDD00BFA4F580730B2BF6D801A252F814
:1005E00023F000BFBD050008150600082506000819
:1005F000350600084506000855060008650600088F
:10060000750600088506000895060008A50600087E
:10061000B50600082C4B5A78A1B2284605F09BF984
:1006200000BFD2E7284B9A78A1B2284605F093F98B
:1006300000BFCAE7244BDA78A1B2284605F08BF94F
:1006400000BFC2E7204B1A79A1B2284605F083F912
:1006500000BFBAE71C4B5A79A1B2284605F07BF9D6
:1006600000BFB2E7184B9A79A1B2284605F073F99A
:1006700000BFAAE7144BDA79A1B2284605F06BF95E
:1006800000BFA2E7104B1A7AA1B2284605F063F921
:1006900000BF9AE70C4B5A7AA1B2284605F05BF9E5
:1006A00000BF92E7084B9A7AA1B2284605F053F9A9
:1006B00000BF8AE7044BDA7AA1B2284605F04BF96D
:1006C00000BF82E724000020C000002008B50F4AC8
:1006D00000210F4803F0F0FC0E4B18600E4A002179
:1006E0000E4803F0E9FC0E4B18600E4A00210E483C
:1006F00003F0E2FC0D4B18600D4A00210D4803F099
:10070000DBFC0D4B186000BF08BD00BF885F000810
:1007100073040008B0000020F45F000881040008A2
:10072000BC000020D05F00081D050008B8000020B4
:10073000AC5F0008BD040008B400002000BF002327
:1007400005E00A4AD15C0A4AD1540133DBB20A2BD4
:10075000F7D900BF0749CB681A0402F00042DB4317
:1007600003F4004313430B61704700BFEC0000200B
:10077000C00000200008014008B5002304E0064A3C
:100780000021D1540133DBB2312BF8D90B220249BD
:10079000024804F04CFB08BDEC000020642500205A
:1007A00000B583B00E4B5A6942F001025A615B6991
:1007B00003F001030193019B002201210E2001F0AF
:1007C00095F90E2001F0A2F9002201210F2001F07D
:1007D0008DF90F2001F09AF903B05DF804FB00BF1A
:1007E0000010024008B50D480D4B03604FF48273B2
:1007F000436000238360C360036143614FF4007270
:100800008261C3610362436283620A23C36201F0AF
:10081000A5FA00B908BDFFF7CDFCFBE77C0300207B
:100820000038004070B586B0002302930393049310
:10083000059302682D4B9A4201D006B070BD044664
:1008400003F5EC33DA6942F48042DA61DA6902F4E2
:1008500080420092009A9A6942F008029A619B696C
:1008600003F008030193019B4FF4204302930223FA
:100870000393032305931E4E02A9304600F04CFE5D
:100880004FF48043029300250395049502A9304656
:1008900000F042FE1748184B0360456085608023D6
:1008A000C360056145618561C56100F059FFB0B95C
:1008B000104BE3645C621148114B036010234360EA
:1008C000002383608022C260036143618361C3614E
:1008D00000F046FF30B9094BA3645C62ADE7FFF757
:1008E00069FCE5E7FFF766FCF5E700BF003800406C
:1008F000000C01403803002044000240F4020020B4
:100900005800024010B4402920D009D804291FD033
:10091000102901D102230AE001291BD1002306E09E
:10092000B1F5807F18D0B1F5806F17D1052318304D
:100930000B4AD15C42580B4C14F803C0042303FA51
:100940000CF322EA0303435010BC70470323EEE785
:100950000123ECE70623EAE70423E8E70623E6E7BA
:10096000206000081860000870B594B000240F944F
:1009700010941194129413942022214607A805F094
:10098000ABFA029403940494059406942F4EF369F1
:1009900043F00103F361F36903F001030193019B49
:1009A0004723ADF83C3040F2E73311930FA94FF0E5
:1009B000804003F071FE4FF080452B6823F08003E8
:1009C0002B60AB6823F4804323F00703AB60AB6973
:1009D00043F40063AB6160230793089409944FF4D8
:1009E0007A730A930B9407AA1021284603F08CFE11
:1009F00010212846FFF786FF6B6823F070036B60B9
:100A0000AB6823F08003AB60B36943F00803B361C4
:100A1000B36903F008030093009B40F608030293B8
:100A20000923039302230493059402A9084800F0C4
:100A300093F9084A536823F0E06323F4407343F0CA
:100A4000E06343F48073536014B070BD0010024043
:100A5000000C01400000014070B594B000240F94D8
:100A600010941194129413942022214607A805F0A3
:100A700033FA02940394049405940694304EF36977
:100A800043F00203F361F36903F002030193019B56
:100A90004723ADF83C3040F2E7331193294D0FA9BD
:100AA000284603F0F9FD2B6823F080032B60AB6828
:100AB00023F4804323F00703AB604FF08042D2F869
:100AC000183443F00803C2F81834602307930894DD
:100AD00009944FF47A730A930B9407AA01212846CC
:100AE00003F012FE01212846FFF70CFF6B6823F08C
:100AF00070036B60AB6823F08003AB60B36943F0B5
:100B00000803B361B36903F008030093009B41F24B
:100B1000100302930923039302230493059402A96B
:100B2000094800F019F9094A536823F0E06323F4F7
:100B3000406343F0E06343F40063536014B070BD5E
:100B40000010024000040040000C01400000014081
:100B5000FEE7FEE7FEE7FEE7FEE7704708B502485E
:100B600000F0DCFE08BD00BF3803002008B50248D5
:100B700000F0D4FE08BD00BFF4020020094B5B6901
:100B800013F4807F03D0074B4FF480725A61054BFA
:100B90005B6913F4007F03D0024B4FF400725A617B
:100BA000704700BF0004014008B5024801F080FE14
:100BB00008BD00BFD403002008B5024804F01CF8AB
:100BC00008BD00BF6425002000B583B0114B9A69B1
:100BD00042F001029A619A6902F001020092009AC1
:100BE000DA6942F08052DA61DB6903F080530193E5
:100BF000019B00220F216FF0010000F077FF064AF1
:100C0000536823F0E06343F00073536003B05DF872
:100C100004FB00BF001002400000014030B589B065
:100C20000446214BDA6942F00402DA61DB6903F021
:100C300004030193019B02A903A800F04FFC069B4B
:100C4000CBB900F02BFC0346184AA2FB03239B0CF4
:100C5000013B1748174A026040F2E732C260436026
:100C6000002303618360836101F01AFF054630B100
:100C7000284609B030BD00F011FC4300E4E70C4801
:100C800001F0DEFD05460028F2D11E2000F03EFFF7
:100C90000F2C01D90125EBE7002221461E2000F090
:100CA00025FF054B1C60E3E70010024083DE1B4379
:100CB000D4030020000800403400002010B54FEAA3
:100CC000116E50F80E3091FAA1FCBCFA8CFC4FEA80
:100CD0008C0C0F2404FA0CFC23EA0C0391FAA1F10A
:100CE000B1FA81F189008A40134340F80E3010BDFB
:100CF00010B54FEA116E50F80E3091FAA1FCBCFA13
:100D00008CFC4FEA8C0C032404FA0CFC23EA0C0341
:100D100091FAA1F1B1FA81F189008A40134340F8B8
:100D20000E3010BD10B54FEA116E50F80E3091FA2A
:100D3000A1FCBCFA8CFC4FEA8C0C042404FA0CFCD9
:100D400023EA0C0391FAA1F1B1FA81F189008A40FA
:100D5000134340F80E3010BD2DE9F04180460E4699
:100D60000F68C7F30F2797FAA7F4B4FA84F414E0D6
:100D7000A4F108034FF001159D4045F080657368AC
:100D8000082B17D0726829464046FFF797FF736813
:100D9000012B1ED0092B1CD0013437FA04F323D0C9
:100DA0000123A3403B42F7D0072CE1D840F20115C4
:100DB000A540E4E73269D8F80C102B0A21EA152186
:100DC00093FAA3F3B3FA83F39A400A43C8F80C20CA
:100DD000D8E7B26829464046FFF78AFFF2682946FD
:100DE0004046FFF79FFFD7E70020BDE8F0810000F5
:100DF00008B5074A136843F010031360032000F09E
:100E000063FE0F20FFF70AFFFFF7DEFE002008BD9C
:100E100000200240034A1168034B1B780B44136007
:100E2000704700BF1C04002030000020014B1868F0
:100E3000704700BF1C04002038B50446FFF7F6FFDA
:100E40000546B4F1FF3F02D0044B1B781C44FFF76A
:100E5000EDFF401BA042FAD338BD00BF3000002098
:100E6000014BD3F8E807704700F0FF1F014BD3F8A0
:100E7000EC07704700F0FF1F82B0084B1B68084A60
:100E8000A2FB03235B0A00FB03F3019300BF019B5A
:100E90005A1E0192002BF9D102B070473800002091
:100EA000D34D6210002800F0F18170B582B0044685
:100EB000036813F0010F2CD0994B5B6803F00C030F
:100EC000042B1DD0964B5B6803F00C03082B12D04B
:100ED0006368B3F5803F41D0002B55D103F18043C7
:100EE00003F504331A6822F480321A601A6822F477
:100EF00080221A6037E08A4B5B6813F4803FE7D0AA
:100F0000874B1B6813F4003F03D06368002B00F08D
:100F1000BF81236813F0020F75D0814B5B6813F01B
:100F20000C0F5FD07E4B5B6803F00C03082B54D092
:100F30002369002B00F08A807A4B01221A60FFF7A8
:100F400075FF0546764B1B6813F0020F75D1FFF74E
:100F50006DFF401B0228F5D903209EE1704A1368FB
:100F600043F480331360636843B3FFF75FFF0546C4
:100F70006B4B1B6813F4003FCBD1FFF757FF401BAF
:100F80006428F5D9032088E1B3F5A02F09D0644B7C
:100F90001A6822F480321A601A6822F480221A60D9
:100FA000E1E703F18043A3F53C331A6842F4802261
:100FB0001A601A6842F480321A60D4E7FFF736FFED
:100FC0000546574B1B6813F4003FA2D0FFF72EFFD6
:100FD000401B6428F5D903205FE1514B5B6813F493
:100FE000803FA5D14E4B1B6813F0020F03D023693D
:100FF000012B40F04F814A4A136823F0F8036169DE
:1010000043EAC1031360236813F0080F33D0A369C8
:10101000002B5CD0434B0122C3F88024FFF706FF6E
:1010200005463F4B5B6A13F0020F21D1FFF7FEFE2E
:10103000401B0228F5D903202FE1394A136823F019
:10104000F803616943EAC1031360DCE7354B002212
:101050001A60FFF7EBFE0546314B1B6813F0020FD9
:10106000D1D0FFF7E3FE401B0228F5D9032014E19D
:101070000120FFF701FF236813F0040F00F09680B2
:10108000274BDB6913F0805F34D1254BDA6942F0DE
:101090008052DA61DB6903F080530193019B0125E3
:1010A000214B1B6813F4807F26D0E368012B3DD0D1
:1010B000002B53D103F1804303F504331A6A22F065
:1010C00001021A621A6A22F004021A6233E0154B16
:1010D0000022C3F88024FFF7A9FE0546104B5B6A87
:1010E00013F0020FC7D0FFF7A1FE401B0228F5D96D
:1010F0000320D2E00025D3E70B4A136843F4807342
:101100001360FFF793FE0646074B1B6813F4807FBE
:10111000CBD1FFF78BFE801B6428F5D90320BCE000
:101120000010024000004242007000405F4A136A13
:1011300043F001031362E36833B3FFF777FE06461B
:101140005A4B1B6A13F0020F2FD1FFF76FFE801B63
:1011500041F288339842F3D903209EE0052B09D051
:10116000524B1A6A22F001021A621A6A22F0040231
:101170001A62E0E74D4B1A6A42F004021A621A6AD8
:1011800042F001021A62D6E7FFF750FE0646474BCF
:101190001B6A13F0020F08D0FFF748FE801B41F2D4
:1011A00088339842F3D9032077E0E5B9E369002B4F
:1011B00072D03E4A526802F00C02082A56D0022B26
:1011C00017D03B4B00221A66FFF730FE0446374B20
:1011D0001B6813F0007F47D0FFF728FE001B022892
:1011E000F5D9032059E0314AD36923F08053D36104
:1011F000DCE72F4B00221A66FFF718FE05462B4B43
:101200001B6813F0007F06D0FFF710FE401B02287A
:10121000F5D9032041E0236AB3F5803F1AD0234972
:101220004B6823F47413226A606A024313434B60D1
:101230001F4B01221A66FFF7F9FD04461B4B1B6882
:1012400013F0007F0ED1FFF7F1FD001B0228F5D946
:10125000032022E0154A536823F40033A1680B43AE
:101260005360DCE7002018E0002016E0012B16D0C8
:101270000E4B5B6803F48031226A914211D103F472
:101280007013626A93420ED1002006E0012070477D
:10129000012002E0012000E0002002B070BD01202A
:1012A000FBE70120F9E70120F7E700BF001002404B
:1012B0000000424286B0174B0FCB0DF1180C0CE921
:1012C0000F0040F20123ADF80430134B5B6803F0CC
:1012D0000C02082A02D0114806B07047C3F38342BB
:1012E00018326A4412F8100C13F4803F0DD00A4BE8
:1012F0005B68C3F3404318336B4413F8143C074A4C
:1013000002FB00F0B0FBF3F0E6E7054B03FB00F057
:10131000E2E700BF286000080010024000127A00D7
:1013200000093D00002800F0A08070B50D4604467D
:10133000524B1B6803F007038B420BD24F4A1368D2
:1013400023F007030B431360136803F007038B427A
:1013500040F08D80236813F0020F17D013F0040FB4
:1013600004D0474A536843F4E0635360236813F0A2
:10137000080F04D0424A536843F460535360404A14
:10138000536823F0F003A1680B435360236813F004
:10139000010F31D06368012B20D0022B25D0384AB1
:1013A000126812F0020F64D035494A6822F0030235
:1013B00013434B60FFF73AFD0646314B5B6803F081
:1013C0000C036268B3EB820F16D0FFF72FFD801B72
:1013D00041F288339842F0D9032045E0284A126848
:1013E00012F4003FE0D101203EE0254A126812F0DD
:1013F000007FD9D1012037E0204B1B6803F00703A1
:10140000AB420AD91D4A136823F007032B4313602C
:10141000136803F00703AB422DD1236813F0040FC8
:1014200006D0174A536823F4E063E1680B43536026
:10143000236813F0080F07D0114A536823F4605350
:10144000216943EAC1035360FFF734FF0C4B5B682B
:10145000C3F303130B4AD35CD8400B4B18600B4B00
:101460001868FFF7DBFB002070BD012070470120EA
:10147000FAE70120F8E70120F6E700BF002002406C
:1014800000100240446000083800002034000020B2
:10149000014B1868704700BF3800002008B5FFF7FF
:1014A000F7FF044B5B68C3F30223034AD35CD840C5
:1014B00008BD00BF001002403C60000808B5FFF7FF
:1014C000E7FF044B5B68C3F3C223034AD35CD840F5
:1014D00008BD00BF001002403C6000080F230360FD
:1014E0000B4B5A6802F0030242605A6802F0F002A5
:1014F00082605A6802F4E062C2605B68DB0803F451
:10150000E0630361034B1B6803F007030B60704744
:10151000001002400020024070B582B00024A446B2
:10152000A2E07E4DAB4210D007D97D4DAB420CD02E
:1015300005F58035AB4208D013E0A5F58015AB4228
:1015400003D005F57025AB4207D18B68002B55D031
:10155000012B4ED04261082403E0A5F58015AB4273
:10156000F3D0BEF1FF0F4BD806464FEA8C0233682A
:101570000F25954023EA050304FA02F21343336072
:101580004B6813F0805F6DD0664B9A6942F00102A0
:101590009A619B6903F001030193019B4FEA9C024E
:1015A000951C614B53F825600CF00305AD000F232B
:1015B000AB4026EA03065D4B984228D003F58063D2
:1015C000984200F08D8003F58063984200F08A8095
:1015D00003F58063984218D0042319E0CC68C0E773
:1015E000CC680434BDE7CC680834BAE7CC680C3466
:1015F000B7E702610824B4E70024B2E70424B0E7A7
:10160000061DACF108029200B1E7032300E00023BD
:10161000AB4033430232444D45F822304B6813F45B
:10162000803F61D0424A136843EA0E0313604B685F
:1016300013F4003F5ED03E4A536843EA0E03536002
:101640004B6813F4801F5BD0394A936843EA0E035A
:1016500093604B6813F4001F58D0354AD36843EAAF
:101660000E03D3600CF1010C0B6833FA0CF253D06B
:10167000012202FA0CF203EA020E32EA0303F1D16C
:101680004B68122B3FF64DAF122B3FF66AAF01A508
:1016900055F823F04B150008DD150008E715000884
:1016A000F9150008631500086315000863150008A4
:1016B000631500086315000863150008631500082A
:1016C000631500086315000863150008631500081A
:1016D0006315000863150008E1150008ED15000802
:1016E000012395E7022393E7114A136823EA0E03C7
:1016F00013609CE70E4A536823EA0E0353609FE78A
:101700000B4A936823EA0E039360A2E7084AD36862
:1017100023EA0E03D360A5E702B070BD00002210DB
:10172000000031100010024000000140000801409C
:101730000004014030B40124056CAC40C56B6C6002
:10174000046863604368102B05D0036899600368E0
:10175000DA6030BC704703689A600368D960F8E7C4
:1017600060B310B402460168154B0B441548A0FB4A
:1017700003031B099B001364134BD363022382F8FA
:101780002130086820F47F5020F0300053689468BE
:101790002343D4682343146923435469234394693E
:1017A0002343D469234303430B6000209063012348
:1017B00082F8213082F8200010BC70470120704769
:1017C000F8FFFDBFCDCCCCCC0000024038B50446BC
:1017D00090F82000012831D0012084F8200094F8EE
:1017E0002100012804D0002384F82030022038BDD5
:1017F000022084F821000020A0632568286820F0DA
:10180000010028602046FFF795FFE36A5BB122687C
:10181000136843F00E0313602268136843F001035A
:1018200013600020E3E72268136823F004031360C9
:101830002268136843F00A031360EDE70220D6E73D
:10184000034690F82120022A06D004228263002257
:1018500080F820200120704701680A6822F00E02FB
:101860000A6001680A6822F001020A60026CC06B1B
:10187000012101FA02F2426083F82110002083F86E
:101880002000704708B590F82130022B03D00423C4
:101890008363012008BD0268136823F00E03136000
:1018A0000268136823F0010313600368194A934226
:1018B00014D0143293421FD0143293421ED01432EB
:1018C00093421ED0143293421ED01432934202D05F
:1018D0004FF0807203E04FF4801200E001220E4BC3
:1018E0005A60012380F82130002380F82030436BB8
:1018F0006BB198470020CDE71022F0E74FF48072DB
:10190000EDE74FF48052EAE74FF48032E7E700203A
:10191000C0E700BF080002400000024038B5C36BBA
:101920001A6804682568016C04238B40134235D083
:1019300015F0040F32D0236813F0200F03D1236871
:1019400023F0040323600368434A934214D0143203
:10195000934218D01432934217D01432934217D0C6
:101960001432934217D01432934202D04FF0806267
:1019700003E04FF4800200E00422384B5A60C36A4F
:1019800003B1984738BD4022F7E74FF48062F4E78F
:101990004FF48042F1E74FF48022EEE702238B40C0
:1019A00013423CD015F0020F39D0236813F0200FFA
:1019B00006D1236823F00A032360012380F8213035
:1019C0000368254A934214D0143293421CD0143237
:1019D00093421BD0143293421BD0143293421BD03B
:1019E0001432934202D04FF0007203E04FF4001221
:1019F00000E00222194B5A60002380F82030836AED
:101A0000002BBFD09847BDE72022F3E74FF40072C8
:101A1000F0E74FF40052EDE74FF40032EAE7082315
:101A20008B401342AED015F0080FABD0236823F0E3
:101A30000E032360026CC16B012303FA02F24A60B9
:101A4000836380F82130002380F82030036B002B63
:101A500098D0984796E700BF080002400000024077
:101A6000002808DB0901C9B200F1604000F56140BF
:101A700080F80013704700F00F000901C9B2014B54
:101A80001954704714ED00E000B500F00700C0F1F4
:101A9000070CBCF1040F28BF4FF0040C031D062BEC
:101AA0000FD9C31E4FF0FF3E0EFA0CF021EA0001E1
:101AB00099400EFA03FE22EA0E0241EA02005DF8A6
:101AC00004FB0023EEE70000074AD36823F4E06339
:101AD0001B041B0C000200F4E060034343F0BF63EF
:101AE00043F40033D360704700ED00E010B50446C6
:101AF000054BD868C0F30220FFF7C6FF0146204619
:101B0000FFF7AEFF10BD00BF00ED00E0002807DBCF
:101B100000F01F02400901239340024A42F820309E
:101B2000704700BF00E100E010B4034600790028D0
:101B300053D01A68002A5DD05879012818D002289D
:101B400021D058B101209A79002A51D0022A2FD0F1
:101B5000032A38D0012A20D0012049E026494C68C8
:101B600024EA02024A601A680C6822430A60EAE723
:101B70002149086820EA02020A601A68486802439C
:101B80004A600020DFE71C49086802430A601A68BF
:101B9000486802434A600020D5E71C68164AD168AD
:101BA00021EA0401D1601B6891680B4393601FE038
:101BB0001C68114A916821EA040191601B68D16890
:101BC0000B43D36014E019680B4A94682143916079
:101BD0001B68D1680B43D3600AE0074A11681C6890
:101BE00021EA040111601968536823EA0103536074
:101BF00010BC70470020FBE7000401402DE9F047CE
:101C000082B00546884617461E46FFF70FF90A9B25
:101C10001B1A03EB0609FFF709F98246284B1B68DC
:101C2000C3F3CB3309FB03F301932B689C6838EAB9
:101C300004040CBF01230023BB423DD0B6F1FF3F9B
:101C4000F3D0FFF7F3F8A0EB0A00484507D2019A5A
:101C500002B14A46019B013B01939146E5E72A68A0
:101C6000536823F0E00353606B68B3F5827F0BD0B9
:101C7000AB6AB3F5005F14D0012385F8513000231F
:101C800085F85030032018E0AB68B3F5004F02D060
:101C9000B3F5806FECD12A68136823F0400313601A
:101CA000E6E72A68136823F4005313602A68136870
:101CB00043F400531360DFE7002002B0BDE8F08773
:101CC0003800002010B582B004460B460092002276
:101CD0008021FFF793FF08B902B010BD636D43F098
:101CE000200363650320F7E710B582B004460B4676
:101CF0004168B1F5827F10D06168B1F5827F03D170
:101D0000A168B1F5806F15D0009200228021204695
:101D1000FFF774FFE0B902B010BD8168B1F5004F64
:101D200002D0B1F5806FE7D12068016821F0400151
:101D30000160E1E70092002201212046FFF75EFFEB
:101D40000028E8D0636D43F0200363650320E2E7D9
:101D5000636D43F0200363650320DCE7002856D061
:101D600010B50446436A33B94368B3F5827F05D0A2
:101D70000023C36102E00023036143610023A362E7
:101D800094F85130002B3CD0022384F85130226863
:101D9000136823F040031360636803F48273A2683E
:101DA00002F404421343E26802F40062134322691E
:101DB00002F002021343626902F001021343A269B6
:101DC00002F400721343E26902F038021343226AFC
:101DD00002F080021343A26A02F400522168134306
:101DE0000B60638B226803F0040353602268D3699D
:101DF00023F40063D36100206065012384F851302F
:101E000010BD84F850302046FEF70CFDBCE70120E1
:101E100070472DE9F04383B01D4690F85030012BF8
:101E200000F0D180044688469146012380F8503066
:101E3000FEF7FCFF074694F85160F6B2012E40F021
:101E4000AF80B8F1000F00F0AC80B9F1000F00F0E6
:101E5000A880032384F8513000236365C4F83080E0
:101E6000A4F83490A4F83690A363A387E38763644F
:101E70002364A368B3F5004F1ED023681A6812F0DC
:101E8000400F03D11A6842F040021A60E368B3F5CC
:101E9000006F1CD0636813B1B9F1010F52D1226BEE
:101EA000236812781A73236B01332363E38E9BB28A
:101EB000013B9BB2E38645E02268136823F04003B0
:101EC00013602268136843F480431360D5E76368A6
:101ED00013B1B9F1010F16D1226B23681288DA60B1
:101EE000236B02332363E38E9BB2013B9BB2E386F9
:101EF00009E0FEF79BFFC01BA84202D3B5F1FF3FEC
:101F000059D1002D59D0E38E9BB2002B33D02368DA
:101F10009A6812F0020FECD0226B1288DA60236B01
:101F200002332363E38E9BB2013B9BB2E386EAE775
:101F3000FEF77CFFC01BA84202D3B5F1FF3F3ED1A4
:101F4000002D3ED0E38E9BB2ABB123689A6812F0AD
:101F5000020FEDD0226B12781A73236B01332363C7
:101F6000B4F836C01FFA8CFC0CF1FF3C1FFA8CFC55
:101F7000A4F836C0E6E73A4629462046FFF7A2FE17
:101F800008B120236365A36833B901932368DA6835
:101F900001929B680193019B636D13B9002600E0D9
:101FA0000226012384F85130002384F85030304653
:101FB00003B0BDE8F0830326F3E70326F1E7032629
:101FC000EFE70326EDE70226F1E72DE9F04383B0C2
:101FD0001F460A9D90F85030012B00F010810446F6
:101FE00088469146012380F85030FEF71FFF0646D1
:101FF00094F85130DBB26268012B0AD0B2F5827FCF
:1020000040F0E380A268002A40F0E980042B40F011
:10201000E880B8F1000F00F0E680B9F1000F00F0A1
:10202000E480002F00F0E38094F85130DBB2042B01
:1020300002D0052384F8513000236365C4F838903A
:10204000E787A787C4F83080E786A78623646364A0
:1020500023681A6812F0400F03D11A6842F0400258
:102060001A60E368B3F5006F11D063680BB1012FFC
:102070000BD1226B236812781A73236B013323630D
:10208000E38E9BB2013B9BB2E38601276BE0636862
:102090000BB1012F0BD1226B23681288DA60236BFE
:1020A00002332363E38E9BB2013B9BB2E38601279D
:1020B0001CE023689A6812F0010F0ED0E28F92B2F2
:1020C0005AB1DA68A36B1A80A36B0233A363E38F60
:1020D0009BB2013B9BB2E3870127FEF7A7FE801B63
:1020E000A84203D3B5F1FF3F40F08380E38E9BB25B
:1020F0001BB9E38F9BB2002B53D023689A6812F070
:10210000020FD6D0E28E92B2002AD2D0002FD0D0C9
:10211000226B1288DA60236B02332363E38E9BB257
:10212000013B9BB2E3860027C3E723689A6812F05D
:10213000010F0ED0E28F92B25AB1DA68A36B1A7017
:10214000A36B0133A363E38F9BB2013B9BB2E38795
:102150000127FEF76BFE831BAB4202D3B5F1FF3FB5
:1021600049D1002D49D0E38E9BB213B9E38F9BB2C6
:10217000BBB123689A6812F0020FD6D0E28E92B2F9
:10218000002AD2D0002FD0D0226B12781A73236B82
:1021900001332363E38E9BB2013B9BB2E3860027AE
:1021A000C3E7324629462046FFF78CFD48B9A368AD
:1021B00063B901932368DA6801929B680193019BDC
:1021C00004E020236365012000E00220012384F85D
:1021D0005130002384F8503003B0BDE8F083022072
:1021E000F4E70220F2E70120F0E70120EEE701200A
:1021F000ECE70320EAE70320E8E70320E6E7022014
:10220000EAE72DE9F04383B00446884691461D462F
:102210004068B0F5827F38D094F85030012B00F040
:10222000AE80012384F85030FEF700FE074694F894
:102230005160F6B2012E40F08F80B8F1000F00F02F
:102240008C80B9F1000F00F08880042384F85130AD
:1022500000236365C4F83880A4F83C90A4F83E904D
:102260002363A386E38623646364A368B3F5004F06
:1022700019D023681A6812F0400F03D11A6842F08F
:1022800040021A60E3681BB341E0A368002BC3D18E
:10229000042384F85130009513460A462046FFF780
:1022A00094FE06465FE02268136823F04003136043
:1022B0002268136823F480431360DAE7FEF7B6FD63
:1022C000C01BA84202D3B5F1FF3F50D1002D50D022
:1022D000E38F9BB2002B33D023689A6812F0010F72
:1022E000ECD0A26B1B7B1370A36B0133A363E38F52
:1022F0009BB2013B9BB2E387EAE7FEF797FDC01B69
:10230000A84202D3B5F1FF3F35D1002D35D0E38F80
:102310009BB2ABB123689A6812F0010FEDD0DA6876
:10232000A36B1A80A36B0233A363B4F83EC01FFAF9
:102330008CFC0CF1FF3C1FFA8CFCA4F83EC0E6E7D5
:102340003A4629462046FFF7CFFC08B120236365B3
:10235000636D13B9002600E00226012384F8513092
:10236000002384F85030304603B0BDE8F0830326E4
:10237000F3E70326F1E70326EFE70326EDE702265E
:10238000F1E7000038B590F85030012B61D00446D9
:10239000012380F8503090F85150EDB29D4252D157
:1023A000002951D0002A4FD0032380F85130002358
:1023B000436501638286C2868363436403648387C3
:1023C000C3878368B3F5004F2AD0A36C224ADA6230
:1023D000A36C224A9A62A36C214A1A63A36C00225E
:1023E0005A632268E38E9BB20C32216BA06CFFF71C
:1023F000EDF90146F8B923681A6812F0400F03D1CD
:102400001A6842F040021A602268536843F02003C1
:1024100053602268536843F0020353600D4613E093
:102420000268136823F0400313600268136843F4E2
:1024300080431360C9E7636D43F0100363650123B4
:1024400084F8513000E00225002384F850302846FB
:1024500038BD0225FBE700BFB9260008FF260008AB
:10246000DD26000838B5044690F85000012800F039
:102470009480012084F8500094F85100C0B265683F
:10248000012807D0B5F5827F78D1A568002D7AD1D3
:1024900004287AD100297AD0002A7AD0002B7AD069
:1024A00094F85100C0B2042802D0052084F85100ED
:1024B000002060652163A386E386A263A387E38788
:1024C0002064606494F85130DBB2042B1CD0E36CC0
:1024D000334ADA62E36C334A9A62E36C324A1A6333
:1024E000E36C00225A632168E38F9BB2A26B0C312C
:1024F000E06CFFF76BF970B1636D43F01003636537
:10250000012084F851003AE0E36C284ADA62E36C77
:10251000274A9A62E1E72268536843F00103536057
:10252000A26C0023D362A26C9362A26C1363A26CB0
:1025300053632268E38E9BB20C32216BA06CFFF7D1
:1025400045F998B923681A6812F0400F03D11A6848
:1025500042F040021A602268536843F0200353603F
:102560002268536843F00203536008E0636D43F050
:1025700010036365012084F8510000E0022000236D
:1025800084F8503038BD0220F9E70220F7E7012037
:10259000F5E70120F3E70120F1E70220F2E700BFB1
:1025A000D1260008DD270008DD260008C526000822
:1025B0006F27000838B5044683681BB94068B0F53A
:1025C000827F49D094F85000012868D0012084F817
:1025D000500094F85150EDB285425AD1002959D09B
:1025E000002A57D0042084F8510000206065A163C0
:1025F000A287E28720646064A086E086B3F5004F7E
:1026000034D0E36C274ADA62E36C274A9A62E36CBF
:10261000264A1A63E36C00225A632168E38F9BB257
:10262000A26B0C31E06CFFF7D1F8014648BB236880
:102630001A6812F0400F03D11A6842F040021A6083
:102640002268536843F0200353602268536843F0C4
:10265000010353600D461DE0042384F851301346F6
:102660000A462046FFF7FEFE054616E0226813687C
:1026700023F0400313602268136823F4804313603F
:10268000BFE7636D43F010036365012384F85130A5
:1026900000E00225002384F85030284638BD02258A
:1026A000FBE700BFC52600086F270008DD260008ED
:1026B000704770477047704708B5406AFFF7FBFFE7
:1026C00008BD704708B5406AFFF7FBFF08BD7047BB
:1026D00008B5406AFFF7FBFF08BD704708B5406AC0
:1026E0000268536823F003035360436D43F0100303
:1026F0004365012380F85130FFF7EFFF08BD30B587
:1027000083B00546446AFEF791FB2B681B6813F003
:10271000200F23D1024621684B6823F020034B6031
:1027200021684B6823F002034B6064212046FFF7C9
:10273000C9FA18B1636D43F020036365A36833B928
:1027400001932368DA6801929B680193019B00233F
:10275000E386012384F85130636D23B92046FFF7E7
:10276000A7FF03B030BD2046FFF7B7FFF9E738B544
:102770000546446AFEF75AFB2B681B6813F0200FCE
:102780001ED1024621684B6823F020034B60A368EA
:102790001BB96368B3F5827F16D021684B6823F0BC
:1027A00001034B6064212046FFF79EFA08B1202305
:1027B00063650023E387012384F85130636D4BB9CF
:1027C0002046FFF776FF38BD21684B6823F00303EE
:1027D0004B60E7E72046FFF780FFF4E738B5054692
:1027E000446AFEF723FB2B681B6813F0200F1BD1F4
:1027F000024621684B6823F020034B606421204689
:10280000FFF760FA18B1636D43F020036365226837
:10281000536823F0030353600023E386E387012317
:1028200084F85130636D1BB92046FFF743FF38BD74
:102830002046FFF752FFFAE790F8510070477047C3
:1028400090F83D30DBB2012B27D1022380F83D30D8
:102850000268D36843F00103D3600368114A9342CE
:1028600010D0B3F1804F0DD0A2F59432934209D02D
:1028700002F58062934205D01A6842F001021A60A4
:10288000002070479A6802F00702062A07D01A68EB
:1028900042F001021A6000207047012070470020BA
:1028A000704700BF002C0140704770477047704769
:1028B00010B5044603681A6912F0020F11D0DA68E5
:1028C00012F0020F0DD06FF002021A61012303779C
:1028D00003689B6913F0030F70D0FFF7E6FF002336
:1028E000237723681A6912F0040F12D0DA6812F005
:1028F000040F0ED06FF004021A61022323772368BD
:102900009B6913F4407F5FD02046FFF7CEFF002382
:10291000237723681A6912F0080F12D0DA6812F0D0
:10292000080F0ED06FF008021A6104232377236882
:10293000DB6913F0030F4ED02046FFF7B6FF0023EC
:10294000237723681A6912F0100F12D0DA6812F098
:10295000100F0ED06FF010021A610823237723683E
:10296000DB6913F4407F3DD02046FFF79EFF002334
:10297000237723681A6912F0010F03D0DA6812F086
:10298000010F36D123681A6912F0800F03D0DA687C
:1029900012F0800F34D123681A6912F0400F03D06F
:1029A000DA6812F0400F32D123681A6912F0200F52
:1029B00003D0DA6812F0200F30D110BDFFF774FF9A
:1029C0002046FFF773FF8AE72046FFF76DFF20469A
:1029D000FFF76CFF9BE72046FFF766FF2046FFF7F7
:1029E00065FFACE72046FFF75FFF2046FFF75EFF7D
:1029F000BDE76FF001021A612046FDF7CFFBC1E78A
:102A00006FF080021A61204600F077F8C3E76FF09C
:102A100040021A612046FFF74AFFC5E76FF0200227
:102A20001A61204600F068F8C7E7000003681B4AF7
:102A300090420AD0B0F1804F07D0A2F59432904274
:102A400003D002F58062904203D123F070034A68FC
:102A50001343124A90420AD0B0F1804F07D0A2F53A
:102A60009432904203D002F58062904203D123F465
:102A70004073CA68134323F080034A691343036019
:102A80008B68C3620B688362044B984202D00123B7
:102A9000436170470B690363F9E700BF002C0140F5
:102AA00040B310B5044690F83D30F3B1022384F8EA
:102AB0003D30214651F8040BFFF7B8FF012384F89D
:102AC000463084F83E3084F83F3084F8403084F853
:102AD000413084F8423084F8433084F8443084F83C
:102AE000453084F83D30002010BD80F83C30FFF7C1
:102AF000A6FEDBE70120704770477047704700F182
:102B0000080343604FF0FF328260C360036100231B
:102B10000360704700230361704743684B609A6805
:102B20008A605160996008610368013303607047EF
:102B300030B40D68B5F1FF3F11D000F108031C4619
:102B40005B681A68AA42FAD963684B6099608C6026
:102B50006160086103680133036030BC7047046939
:102B6000F2E70369416882688A60416851605A6887
:102B7000824206D0002202611A68013A1A6018687F
:102B8000704782685A60F5E710B5044601F09AFB79
:102B9000A26BE36B9A4204D0002401F0B5FB2046FF
:102BA00010BD0124F9E710B5044601F08BFBA36BBF
:102BB00023B9012401F0A8FB204610BD0024F9E749
:102BC00070B504461546866B026C5AB903681BB192
:102BD00000200136A66370BD406800F0C7FF0023E7
:102BE0006360F6E76DB9806803F0A2F9A368226C10
:102BF0001344A3606268934219D32368A3602846F4
:102C0000E7E7C06803F094F9E368226C51429B1A2D
:102C1000E3602268934202D263680B44E360022DB2
:102C200001D00020D5E726B1013E0020D1E728469B
:102C3000CFE70020CDE708B50346026C62B1084635
:102C4000D9681144D960D3F804C0614501D319682B
:102C5000D960D96803F06CF908BD38B5054601F0B4
:102C600031FB95F8454064B201E0013C64B2002CB0
:102C70000ADD6B6A43B105F1240000F0CDFE0028A7
:102C8000F3D000F05DFFF0E7FF2385F8453001F059
:102C90003BFB01F017FB95F8444064B201E0013CB6
:102CA00064B2002C0ADD2B6943B105F1100000F07D
:102CB000B3FE0028F3D000F043FFF0E7FF2385F8D0
:102CC000443001F021FB38BD38B5E0B10D46044673
:102CD00001F0F8FA2368E26B216C01FB02306060BE
:102CE0000020A063A360013A02FB0133E360FF23ED
:102CF00084F8443084F84530FDB9236963B901F0A4
:102D000003FB012038BD4FF0500383F31188BFF35C
:102D10006F8FBFF34F8FFEE704F1100000F07CFED1
:102D20000028ECD04FF0E0234FF08052C3F8042D80
:102D3000BFF34F8FBFF36F8FE1E704F11000FFF790
:102D4000DEFE04F12400FFF7DAFED8E738B51D46B1
:102D5000049C0B4649B92460E063236401212046AA
:102D6000FFF7B2FF84F84C5038BD2260F4E740B959
:102D70004FF0500383F31188BFF36F8FBFF34F8F72
:102D8000FEE710B584B01C46844653B192B189B9B0
:102D90004FF0500383F31188BFF36F8FBFF34F8F52
:102DA000FEE74FF0500383F31188BFF36F8FBFF33B
:102DB0004F8FFEE76AB150230393039B502B13D030
:102DC0004FF0500383F31188BFF36F8FBFF34F8F22
:102DD000FEE70029EFD04FF0500383F31188BFF3D3
:102DE0006F8FBFF34F8FFEE7012384F846300094C6
:102DF0009DF818306046FFF7A9FF204604B010BDCB
:102E0000F0B585B0019288B10F461D460446B1B1B8
:102E1000022D20D1E36B012B1DD04FF0500383F323
:102E20001188BFF36F8FBFF34F8FFEE74FF0500352
:102E300083F31188BFF36F8FBFF34F8FFEE7036CEF
:102E4000002BE5D04FF0500383F31188BFF36F8F51
:102E5000BFF34F8FFEE700F079FE064658B9019B9D
:102E6000002B48D04FF0500383F31188BFF36F8FCE
:102E7000BFF34F8FFEE700263DE02A463946204645
:102E8000FFF79EFE636A7BB948B14FF0E0234FF035
:102E90008052C3F8042DBFF34F8FBFF36F8F01F043
:102EA00033FA012005B0F0BD04F1240000F0B4FDB8
:102EB0000028F4D04FF0E0234FF08052C3F8042DE7
:102EC000BFF34F8FBFF36F8FE9E701F01DFA0020CA
:102ED000E8E702A800F0E6FD012619E0002384F8E7
:102EE000443021E0002384F8453023E02046FFF7FA
:102EF000B4FE00F06FFC01F0E5F9A26BE36B9A42BF
:102F0000BBD3022DB9D0019B002BDED0002EE0D028
:102F100001F0FAF900F0C4FB01F0D4F994F8442070
:102F200052B2B2F1FF3FD9D094F8452052B2B2F17B
:102F3000FF3FD7D001F0E8F901A902A800F0BEFDDB
:102F4000D8B92046FFF720FE0028CFD0019904F120
:102F5000100000F02DFD2046FFF77FFE00F03AFC48
:102F60000028C8D14FF0E0234FF08052C3F8042D61
:102F7000BFF34F8FBFF36F8FBDE72046FFF76DFEA6
:102F800000F028FC00208DE72DE9F84390B10F46B2
:102F900016461C460546B1B1022C20D1EB6B012B25
:102FA0001DD04FF0500383F31188BFF36F8FBFF331
:102FB0004F8FFEE74FF0500383F31188BFF36F8FFD
:102FC000BFF34F8FFEE7036C002BE5D04FF05003AB
:102FD00083F31188BFF36F8FBFF34F8FFEE701F0CC
:102FE0005BFAEFF311884FF0500383F31188BFF3BE
:102FF0006F8FBFF34F8FAA6BEB6B9A4206D3022CF5
:1030000004D0002088F31188BDE8F88395F8459036
:103010004FFA89F9224639462846FFF7D1FDB9F122
:10302000FF3F06D009F101035BB285F8453001206E
:10303000E8E76B6A0BB90120E4E705F1240000F032
:10304000EBFC18B126B101203060DBE70120D9E7A5
:103050000120D7E7F0B585B0019290B10F46044644
:10306000C1B100F073FD064600BB019B002B5ED092
:103070004FF0500383F31188BFF36F8FBFF34F8F6F
:10308000FEE74FF0500383F31188BFF36F8FBFF358
:103090004F8FFEE7036C002BE3D04FF0500383F318
:1030A0001188BFF36F8FBFF34F8FFEE700263EE01E
:1030B00039462046FFF7BFFD013DA563236923B9CB
:1030C00001F022F9012005B0F0BD04F1100000F07C
:1030D000A3FC0028F4D04FF0E0234FF08052C3F857
:1030E000042DBFF34F8FBFF36F8FE9E701F00CF9A9
:1030F0000020E8E702A800F0D5FC012621E000232B
:1031000084F8443029E0002384F845302BE0204641
:10311000FFF7A3FD00F05EFB09E02046FFF79DFDF1
:1031200000F058FB2046FFF73EFD00283FD101F09C
:10313000C9F8A56B002DBBD1019B002BD6D0002E6A
:10314000D8D001F0E1F800F0ABFA01F0BBF894F848
:1031500044305BB2B3F1FF3FD1D094F845305BB25D
:10316000B3F1FF3FCFD001F0CFF801A902A800F0E2
:10317000A5FC0028D1D12046FFF715FD0028C6D0B8
:10318000019904F1240000F013FC2046FFF765FDCF
:1031900000F020FB0028CAD14FF0E0234FF080520E
:1031A000C3F8042DBFF34F8FBFF36F8FBFE700202D
:1031B00089E700000023072B0CD8074A52F8332078
:1031C0000AB10133F7E7044A42F8331002EBC302B5
:1031D00050607047704700BF2004002070B504465F
:1031E0000D46164601F06EF894F844305BB2B3F128
:1031F000FF3F0DD094F845305BB2B3F1FF3F0BD0E9
:1032000001F082F8A36B5BB12046FFF726FD70BD8D
:10321000002384F84430EDE7002384F84530EFE7DD
:103220003246294604F1240000F0DAFBECE7000006
:10323000084B1B681B6823B9074B4FF0FF321A601D
:103240007047044B1B68DB68DB685A68024B1A60E6
:10325000704700BFD0040020680400202DE9F0472B
:1032600080460D4617469946089EDDF824A00A9C24
:103270009200A521206B02F02FFE236B07F1804204
:10328000013A03EB820727F007074FF0000CBCF16F
:103290000F0F09D815F80C3004EB0C0282F834300B
:1032A00013B10CF1010CF2E7002384F84330372E00
:1032B00000D93726E662E66400252565201DFFF764
:1032C00029FC04F11800FFF725FC2461C6F138063B
:1032D000A6616462656584F858504A46414638469E
:1032E00000F0CAFF2060BAF1000F01D0CAF8004018
:1032F000BDE8F08738B5002407E004EB84029300B2
:103300000E481844FFF7FBFB0134372CF5D90C4D60
:103310002846FFF7F4FB0B4C2046FFF7F0FB0A486A
:10332000FFF7EDFB0948FFF7EAFB0948FFF7E7FB6A
:10333000084B1D60084B1C6038BD00BFFC0400201A
:10334000E8040020D4040020B8040020A4040020D5
:103350008C040020D0040020CC04002010B50446CA
:1033600000F0B0FF224A136801331360214B1B6841
:103370005BB1214B1B686BB91E4B1B68DA6AE36AB1
:103380009A4207D81B4B1C6004E01A4B1C60136860
:10339000012B29D0194A1368013313606364E06A72
:1033A000174B1B68984201D9154B186000EB800041
:1033B000211D144B03EB8000FFF7AFFB00F0A4FFCF
:1033C0000D4B1B687BB10B4B1B68DA6AE36A9A42B0
:1033D00009D24FF0E0234FF08052C3F8042DBFF321
:1033E0004F8FBFF36F8F10BDFFF784FFD2E700BF91
:1033F000880400205C0900207C0400206C0400206C
:1034000080040020FC04002010B5044690F85930D8
:1034100063B1012B11D0022B0ED04FF0500383F378
:103420001188BFF36F8FBFF34F8FFEE7006B01F082
:10343000F1F9204601F0EEF910BD01F0EBF9FBE7E0
:103440000F4B1B68D3B110B500F03CFF0D4BDB6890
:10345000DC68201DFFF785FB0B4A1368013B1360F6
:10346000074A1368013B136000F04EFF2046FFF748
:10347000CBFF034B1B68002BE6D110BD704700BF8C
:10348000A0040020A40400208804002008B5FFF751
:10349000D7FF074B1B68012BF9D94FF0E0234FF002
:1034A0008052C3F8042DBFF34F8FBFF36F8FEEE749
:1034B000FC04002070B504460D46174B1E68174BE0
:1034C00018680430FFF74DFBB4F1FF3F0DD03444D2
:1034D000124B1B685C60A64210D9114B18680F4B49
:1034E00019680431FFF724FB70BD002DEFD00B4BA2
:1034F000196804310B48FFF710FBF5E70A4B186811
:10350000064B19680431FFF713FB084B1B68A342F5
:10351000EAD9064B1C60E7E7840400205C09002020
:10352000CC0400208C040020D0040020680400207B
:1035300030B587B00B9C7CB10C9DB5B15C25049572
:10354000049D5C2D1AD04FF0500383F31188BFF314
:103550006F8FBFF34F8FFEE74FF0500383F3118857
:10356000BFF36F8FBFF34F8FFEE74FF0500383F32E
:103570001188BFF36F8FBFF34F8FFEE70C9D2C6355
:10358000022485F8594000240394029505AC019467
:103590000A9C0094FFF762FE0C98FFF7DFFE059887
:1035A00007B030BD2DE9F04385B007468846144684
:1035B0001E46900001F0DCF808B381465C2001F063
:1035C000D7F80546A8B1C0F83090002380F85930EC
:1035D000039302900D9B01930C9B0093334622466C
:1035E00041463846FFF73AFE2846FFF7B7FE01206E
:1035F00007E0484601F00EF94FF0FF3001E04FF0D0
:10360000FF3005B0BDE8F08310B588B00024059404
:10361000069407AA06A905A800F0E6FD059B0293FB
:10362000069B019300942346079A17491748FFF712
:103630007FFF174B1860C0B100F04CFB012815D17B
:103640004FF0500383F31188BFF36F8FBFF34F8F99
:10365000104B4FF0FF321A600F4B01221A600F4BD4
:1036600000221A6000F0B8FE03E00020B0F1FF3F36
:1036700001D008B010BD4FF0500383F31188BFF3A1
:103680006F8FBFF34F8FFEE7546000088D34000842
:1036900064040020680400207C04002084040020CE
:1036A000024A136801331360704700BF60040020B2
:1036B000014B1868704700BF84040020F8B53A4BEE
:1036C0001B68002B64D1394B1D6801351D60C5B9DD
:1036D000374B1B681B6843B14FF0500383F31188CD
:1036E000BFF36F8FBFF34F8FFEE7314A1168314B45
:1036F000186810601960304A136801331360FFF7CF
:1037000097FD2E4B1B68AB4238D900272C4B1B680A
:10371000DB6A03EB83039A002A4B9B58012B3CD9AD
:1037200001273AE00127224B1B681B6843B3204B5B
:103730001B68DB68DC6863689D4226D3261D304623
:10374000FFF70FFAA36A1BB104F11800FFF709FA9B
:10375000E36A1D4A1268934201D91B4A136003EBC6
:1037600083039A00314617481044FFF7D6F9E26AFE
:10377000134B1B68DB6A9A42D4D2D4E70027D2E706
:103780000E4B4FF0FF321A60C0E70C4A1360BDE7E2
:103790000E4A13680133136000270D4B1B6803B1F9
:1037A00001273846F8BD00BF6004002084040020D3
:1037B000D0040020CC040020700400206804002005
:1037C0005C090020FC040020800400207804002014
:1037D0007404002038B5354B1B6843B94FF05003D3
:1037E00083F31188BFF36F8FBFF34F8FFEE700F0B5
:1037F00069FD2E4B1A68013A1A601B68002B4FD1E5
:103800002B4B1B680BB900244BE00024294B1B6891
:103810001BB3284BDB68DC6804F11800FFF7A1F943
:10382000251D2846FFF79DF9E06A234B1B68984247
:1038300001D9214B186000EB800029461F4B03EB98
:103840008000FFF76AF9E26A1D4B1B68DB6A9A4247
:10385000DCD31C4B01221A60D8E70CB1FFF7E8FC5F
:10386000194B1C6884B9174B1C68D4B14FF0E02386
:103870004FF08052C3F8042DBFF34F8FBFF36F8F0B
:1038800001240EE0013C07D0FFF718FF0028F9D013
:103890000C4B01221A60F5E70B4B00221A60E2E79D
:1038A000002400F031FD204638BD00BF6004002038
:1038B00088040020B804002080040020FC040020BC
:1038C0005C090020740400207804002010B5A8B121
:1038D0000446104B1B6843B14FF0500383F311882B
:1038E000BFF36F8FBFF34F8FFEE7FFF7D9FE0021C5
:1038F0002046FFF7DFFDFFF76DFF48B94FF0E023EB
:103900004FF08052C3F8042DBFF34F8FBFF36F8F7A
:1039100010BD00BF60040020204B1B681BB1204B72
:1039200001221A6070471E4B00221A601D4B1B6853
:1039300003EB83018A001C498A585AB90BB1013B39
:10394000F6E74FF0500383F31188BFF36F8FBFF397
:103950004F8FFEE7084603EB83018A00024451685B
:103960004968516003EB830C4FEA8C020832024431
:1039700091420BD003EB830291000B4A0A44526838
:10398000D1680A4A1160074A136070474868624666
:103990009100054A0A445060ECE700BF6004002033
:1039A0007404002080040020FC0400205C09002036
:1039B00058B110B50C46094A11681831FFF7B8F82C
:1039C00001212046FFF776FD10BD4FF0500383F331
:1039D0001188BFF36F8FBFF34F8FFEE75C090020A4
:1039E00038B570B10D4614460A4A11681831FFF710
:1039F00094F80CB14FF0FF3521462846FFF75AFDE9
:103A000038BD4FF0500383F31188BFF36F8FBFF3BE
:103A10004F8FFEE75C09002038B5C368DC6824B32B
:103A200004F118052846FFF79CF8184B1B682BBBC0
:103A3000251D2846FFF795F8E06A154B1B6898424C
:103A400001D9134B186000EB80002946114B03EBA2
:103A50008000FFF762F8E26A0F4B1B68DB6A9A424C
:103A600011D901200D4B186038BD4FF0500383F37E
:103A70001188BFF36F8FBFF34F8FFEE729460848C9
:103A8000FFF74BF8E7E70020EEE700BF60040020F7
:103A900080040020FC0400205C0900207404002045
:103AA000B8040020034B1B680360034B1B68436092
:103AB000704700BF7004002084040020D8B170B5A6
:103AC0000C46054601B300F0FDFB1B4B19686B6803
:103AD000C81A2268B2F1FF3F27D0184E3668D5F8D1
:103AE00000C0B44501D08B4224D9824215D80023AE
:103AF000236001241AE04FF0500383F31188BFF3D1
:103B00006F8FBFF34F8FFEE74FF0500383F31188A1
:103B1000BFF36F8FBFF34F8FFEE75B1A1344236031
:103B20002846FFF7BFFF002400E0002400F0ECFB74
:103B3000204670BD0124F9E78404002070040020B1
:103B4000014B01221A60704774040020054B1B686A
:103B500033B1054B1B680BB1002070470220704742
:103B6000012070477C0400206004002000283BD026
:103B700038B504461E4B1B68834208D04FF05003F3
:103B800083F31188BFF36F8FBFF34F8FFEE7036D91
:103B900043B94FF0500383F31188BFF36F8FBFF326
:103BA0004F8FFEE7013B0365C16AC26C91421DD095
:103BB0000BB1002038BD051D2846FEF7D2FFE06C92
:103BC000E062C0F13803A3610A4B1B68984201D937
:103BD000084B186000EB80002946074B03EB800080
:103BE000FEF79BFF0120E5E7002070470020E1E79A
:103BF0005C09002080040020FC040020064B1A68A9
:103C00001368B3FA83F35B09036013B9D3681868C8
:103C100070470020704700BF600A002008B541606F
:103C2000006191420CD8D21A83699A4201D30120D3
:103C300008BD011D094B1868FEF77AFF0020F7E761
:103C40009A4201D2994206D2011D054B1868FEF72F
:103C50006FFF0020ECE70120EAE700BF5C0A0020CC
:103C6000600A002030B583B000F02CFB114B1B68BC
:103C70001BB100F049FB03B030BD0F4D2846FEF7E5
:103C80003EFF0E4C2046FEF73AFF0D4B1D600D4BDC
:103C90001C60002300930C4B0C4A10210A20FFF7F4
:103CA00066F8044B18600028E3D00949FFF782FA50
:103CB000DFE700BF580A0020780A0020640A0020CD
:103CC000600A00205C0A002060090020B009002082
:103CD0005C60000810B588B0FFF7C4FF124B1B688A
:103CE000CBB100240594069407AA06A905A800F004
:103CF00087FA059B0293069B0193022300932346B8
:103D0000079A0A490A48FFF713FC0A4B186010B1DA
:103D1000012008B010BD4FF0500383F31188BFF3AA
:103D20006F8FBFF34F8FFEE7580A002064600008D2
:103D300011400008540A0020B8B19C4603461848B8
:103D4000006858B300B585B000910192029305292F
:103D50001CDCFFF7FBFE022810D000231A46694640
:103D60000F480068FFF74CF815E04FF0500383F35D
:103D70001188BFF36F8FBFF34F8FFEE70023069AC2
:103D8000694607480068FFF73BF804E000236246F5
:103D90006946FFF7F9F805B05DF804FB00207047AD
:103DA000580A002070B582B01A4B1B681A6852B3CB
:103DB000DB681E68DC68251D2846FEF7D2FE636AB4
:103DC00020469847E369012BEED1A36933449E4214
:103DD00007D26360246129460E4B1868FEF7A8FEDF
:103DE000E2E7002100910B4632462046FFF7A4FF90
:103DF0000028D9D14FF0500383F31188BFF36F8FA0
:103E0000BFF34F8FFEE7044A106802490860136051
:103E100002B070BD600A00205C0A002038B505467B
:103E2000FFF746FC0446074B1B68834205D8002376
:103E30002B60044B1C60204638BDFFF7B3FF012305
:103E40002B60F6E7500A002070B582B006460D469A
:103E500014490968C968CC68201DFEF782FEE16933
:103E6000012904D0636A2046984702B070BDA16959
:103E700033462A4631442046FFF7D0FE0028F1D0D1
:103E8000002100910B4632462046FFF755FF0028DF
:103E9000E8D14FF0500383F31188BFF36F8FBFF366
:103EA0004F8FFEE7600A002070B582B006460C46D0
:103EB000FFF7F6FB01A8FFF7B1FF019B23BB054607
:103EC00044B9B0420CD3FFF785FC29463046FFF7D2
:103ED000BBFF1BE00E4B1B681C68B4FA84F464093A
:103EE0002246711B0B4B1868FFF778F9FFF772FC3D
:103EF00060B94FF0E0234FF08052C3F8042DBFF3B8
:103F00004F8FBFF36F8F01E0FFF764FC02B070BD0D
:103F10005C0A0020580A002010B588B002E0049B1B
:103F2000002B0FDA002204A9384B1868FFF792F82B
:103F3000002869D0049B002BF1DA07990698059BAD
:103F40009847ECE7069C636913B1201DFEF709FE54
:103F500003A8FFF763FF049B092BE3D801A252F8E3
:103F600023F000BF8D3F00088D3F00088D3F000803
:103F7000253F0008D33F0008F93F00088D3F0008A7
:103F80008D3F0008253F0008D33F0008059BA1692D
:103F9000024619442046FFF741FE0028C2D0636A5A
:103FA00020469847E369012BBCD1A269002100910A
:103FB0000B46059802442046FFF7BEFE0028B1D10B
:103FC0004FF0500383F31188BFF36F8FBFF34F8F10
:103FD000FEE70599A16131B103460246014420463E
:103FE000FFF71CFE9EE74FF0500383F31188BFF3E9
:103FF0006F8FBFF34F8FFEE794F82C30002B91D1D9
:10400000204600F007FC8DE708B010BD580A0020DC
:1040100000B583B001A8FFF7F1FD0199FFF744FF58
:10402000FFF77AFFF6E70000EFF3058393B9EFF3AC
:10403000108393B90C4B1868022804D080B90A4B3E
:1040400001221A607047EFF31183002BF6D06FF056
:10405000050070476FF0050070476FF0050070476E
:104060004FF0FF30704700BF4411002008B5EFF358
:104070000583B3B9EFF31083B3B90E4B1B68022B62
:1040800008D0012B13D10B4B02221A60FFF7BCFAA8
:10409000002008BDEFF31182002AF2D06FF0050076
:1040A000F7E76FF00500F4E76FF00500F1E74FF078
:1040B000FF30EEE744110020F0B587B000240494EF
:1040C000EFF30584002C43D1EFF31083002B3FD195
:1040D000334B1B68022B16D0002839D000238DF8F3
:1040E000173062B3156895B1936903B918235C1E44
:1040F000372C51D8546814F0010F4FD156694EB186
:104100004FEA960C08E0EFF311830BBBE4E70DF1E7
:104110001705E9E74FF0800C94682CB1D7685B2F46
:1041200002D9176907B1B6B914B14FF0FF340CE0EA
:10413000D46894B914699CB14FF0FF3405E00024B1
:1041400018234FF0800C0DF11705012C0AD0ACB1EB
:10415000049807B0F0BD0124F7E74FF0FF34F4E70F
:104160000024F2E7146992680292019400930B46CE
:1041700062462946FFF7DCF90490E9E704AA0192B8
:1041800000930B461FFA8CF22946FFF70BFA012821
:10419000DED000230493DBE70020DAE70020D8E735
:1041A0004411002008B5EFF30583A3B9EFF31083A2
:1041B000A3B90C4B1B68022B02D040B9002008BDEC
:1041C000EFF31183002BF8D06FF00500F7E7FFF74E
:1041D0007DFB0020F3E76FF00500F0E76FF00500CE
:1041E000EDE700BF44110020034B0360034B0B605D
:1041F00080231360704700BFE8100020E80E002005
:10420000034B0360034B0B604FF4807313607047E4
:104210008C0E00208C0A002082B0002301930D4BED
:104220001B68B3F1FF3F08D04FF0500383F31188B0
:10423000BFF36F8FBFF34F8FFEE74FF0500383F351
:104240001188BFF36F8FBFF34F8F019B002BFCD002
:1042500002B070473C00002006480068006880F308
:10426000088862B661B6BFF34F8FBFF36F8F00DF70
:1042700000BF000008ED00E04FF0807340F8043C00
:1042800021F0010140F8081C034B40F80C3C40F8B9
:10429000202C4038704700BF194200080000000081
:1042A000074B19680868B0E8F00F80F30988BFF37E
:1042B0006F8F4FF0000080F311884EF00D0E7047A5
:1042C0005C0900204FF0500383F31188BFF36F8F18
:1042D000BFF34F8F0B4A136801331360012B00D0DB
:1042E00070474FF0E023D3F8043D13F0FF0FF7D0F1
:1042F0004FF0500383F31188BFF36F8FBFF34F8FDD
:10430000FEE700BF3C000020094B1B6843B94FF09B
:10431000500383F31188BFF36F8FBFF34F8FFEE716
:10432000013B034A13600BB983F31188704700BF48
:104330003C00002000000000000000000000000021
:10434000EFF30980BFF36F8F0D4B1A6820E9F00F70
:1043500010602DE908404FF0500080F31188FFF7FE
:10436000DBFA4FF0000080F31188BDE808401968BF
:104370000868B0E8F00F80F30988BFF36F8F7047CB
:104380005C09002008B54FF0500383F31188BFF398
:104390006F8FBFF34F8FFFF791F928B14FF0E023F4
:1043A0004FF08052C3F8042D002383F3118808BD19
:1043B0004FF0E022002313619361054B1B68054910
:1043C000A1FB03139B09013B536107231361704752
:1043D00038000020D34D621010B582B02A4B1A78F5
:1043E000D2B20192FF221A701B78DBB28DF8033033
:1043F0009DF8033003F05003244A1370244B072226
:104400001A6009E0224A1368013B13609DF80330EB
:104410005B00DBB28DF803309DF8033013F0800FA2
:10442000F0D11B4B1B68032B08D04FF0500383F3D4
:104430001188BFF36F8FBFF34F8FFEE71B02144A43
:10444000136003F4E0631360019BDBB20E4A137048
:104450004FF0E023D3F8202D42F47002C3F8202D52
:10446000D3F8202D42F07042C3F8202DFFF7A0FFB3
:104470000024084B1C60FFF7EFFEFFF74DFAFFF733
:10448000CBFE204602B010BD00E400E04C1100203D
:10449000481100203C000020EFF305830F2B0FD9BB
:1044A000114A9B5CDBB2114A12789A4208D94FF04C
:1044B000500383F31188BFF36F8FBFF34F8FFEE775
:1044C0004FF0E023D3F80C3D03F4E063084A126890
:1044D000934208D94FF0500383F31188BFF36F8FD5
:1044E000BFF34F8FFEE77047F0E300E04C11002070
:1044F0004811002030B4036A23F001030362036A09
:104500004468826922F073020D682A4323F0020393
:104510000D692B4323F001034D682B430F4DA84237
:1045200007D044608261CA6842630362002030BCE5
:10453000704723F008034D6943EA850323F0040321
:104540008D6843EA850324F480748D692C4324F438
:104550000074CD6944EA4504E3E700BF002C014044
:1045600030B4036A23F010030362036A446882696B
:1045700022F4E6420D6842EA052223F020030D6989
:1045800043EA051323F010034D6843EA0513104D69
:10459000A84207D044608261CA6882630362002037
:1045A00030BC704723F080034D6943EA851323F044
:1045B00040038D6843EA851324F480648D6944EADE
:1045C000850424F40064CD6944EAC504E2E700BF31
:1045D000002C014030B4036A23F480730362036A41
:1045E0004468C26922F073020D682A4323F4007301
:1045F0000D6943EA052323F480734D6843EA0523DC
:104600000F4DA84207D04460C261CA68C26303620A
:10461000002030BC704723F400634D6943EA8523D2
:1046200023F480638D6843EA852324F480548D69E4
:1046300044EA051424F40054CD6944EA4514E2E741
:10464000002C014030B4036A23F480530362036AF0
:104650004468C26922F4E6420D6842EA052223F466
:1046600000530D6943EA053323F480534D6843EA50
:104670000533084DA84207D04460C261CA6802648D
:104680000362002030BC704724F480448D6944EA02
:104690008514F1E7002C014003681A4A90420AD0C1
:1046A000B0F1804F07D0A2F59432904203D002F5CA
:1046B0008062904203D123F070034A681343114A89
:1046C00090420AD0B0F1804F07D0A2F594329042C8
:1046D00003D002F58062904203D123F44073CA688C
:1046E000134303608B68C3620B888362054B984257
:1046F00005D0436943F001034361002070470B6913
:104700000363F6E7002C014008B50B461146B3F5EC
:10471000807F14D008D8012B0ED0102B02D1FFF7C8
:104720001FFF08E0012006E0B3F5805F02D1FFF72C
:1047300089FF00E0012008BDFFF7DCFEFBE7FFF783
:1047400049FFF8E7074B23F00703074A13600020EF
:104750005060064A41F2F8315160106059601A60A9
:10476000704700BF6C1100205C1100205411002024
:1047700070B50446FEF794FF224B1B687BB134B141
:10478000083414F0070F02D024F007040834621E26
:1047900041F2F6339A4230D81B490B6807E0FFF725
:1047A000D1FF184B01221A60E9E7194613465A68EF
:1047B000A24202D21A68002AF7D1144A93421ED0AC
:1047C0000D6808351A680A605A68121B102A0BD93E
:1047D0001E1972605C6074680B4A1046126851685A
:1047E000A142FAD3326006605968094A13685B1A1D
:1047F0001360FEF7EFFF284670BD0025F9E700259E
:10480000F7E700BF501100205C1100205411002078
:1048100040000020C8B138B50446A0F10805FEF7F5
:104820003FFF54F8040C094B19461B685A68824232
:10483000FAD344F8083C0D6054F8041C044A136889
:104840000B441360FEF7C6FF38BD70475C110020B3
:104850004000002008B50A480A4B03604FF4E133DA
:10486000436000238360C36003610C224261836163
:10487000C36100F0E9F800B908BDFBF79BFCFBE75A
:10488000642500200038014030B587B00023029332
:1048900003930493059302681E4B9A4201D007B01C
:1048A00030BD03F558439A6942F480429A619A698F
:1048B00002F480420092009A9A6942F008029A61DA
:1048C0009B6903F008030193019B40230293022399
:1048D000039303230593104D02A92846FCF71CFE01
:1048E0008023029300240394049402A92846FCF731
:1048F00013FE0A4A536843F0E06343F00403536035
:10490000224605212520FDF7F1F82520FDF7FEF8C8
:10491000C5E700BF00380140000C01400000014025
:104920000268D36823F49073D3600268536923F05C
:1049300001035361036B012B05D0202380F83E3027
:104940000023036370470268D36823F01003D36029
:10495000F3E790F83D30DBB2212B01D00220704705
:104960008368B3F5805F17D0036A5A1C02621A7815
:1049700003685A60C38C9BB2013B9BB2C3844BB9A2
:104980000268D36823F08003D3600268D36843F0E1
:104990004003D360002070470369002BE4D1036A11
:1049A0001B880268C3F308035360036A023303627F
:1049B000E0E7000010B504460268136923F4405391
:1049C000C1680B43136183680269134342691A4348
:1049D0000168CB6823F4B05323F00C031343CB607E
:1049E0000268536923F4407381690B435361026881
:1049F000134B9A4220D0FCF751FD024602EB820293
:104A000002EB820263689B00B2FBF3F20D48A0FB4D
:104A100002314909642303FB11231B013233A0FB3C
:104A200003035B0903F0F00202EB011203F00F0332
:104A3000216813448B6010BDFCF740FD0246DDE7A2
:104A4000003801401F85EB5158B310B5044690F86B
:104A50003D300BB3242384F83D302268D36823F41F
:104A60000053D3602046FFF7A5FF2268136923F4A3
:104A7000904313612268536923F02A03536122682B
:104A8000D36843F40053D36000202064202384F8CB
:104A90003D3084F83E3010BD80F83C30FFF7F4FE26
:104AA000D8E70120704790F83D30DBB2202B19D1B8
:104AB000D1B1DAB190F83C30012B19D0012380F844
:104AC0003C3001628284C28400230364212280F886
:104AD0003D2080F83C300168CA6842F08002CA601C
:104AE0001846704702207047012070470120704728
:104AF0000220704708B50168CA6822F04002CA6007
:104B0000202280F83D20FBF737FE002008BD7047CB
:104B100008B5406A0023C385C384FFF7F8FF08BDCA
:104B2000704790F83E30DBB2222B60D18368B3F53A
:104B3000805F46D0826AB3F5805F04D0002B4DD1F0
:104B40000369002B4AD103685B681370836A0133E1
:104B50008362C38D9BB2013B9BB2C385002B48D1BE
:104B600000B583B00268D36823F02003D3600268E5
:104B7000D36823F48073D3600268536923F0010380
:104B80005361202380F83E30036B012B2CD100238E
:104B900003630268D36823F01003D36003681A68C4
:104BA00012F0100F06D0002201921A6801925B6881
:104BB0000193019B818DFFF7B3FF002003B05DF8E7
:104BC00004FB0269002AB5D1826A03685B68C3F3FB
:104BD00008031380836A02338362BAE703685B6861
:104BE00003F07F031370B1E7FBF7A8FDE5E70220B0
:104BF000704700207047000010B582B0044602687C
:104C00001368D068516913F00F0F09D113F0200F0A
:104C10000CD010F0200F09D02046FFF782FF16E0DD
:104C200011F0010115D110F4907F12D1216B0129EF
:104C300071D013F0800F03D010F0800F40F0D280BD
:104C400013F0400F03D010F0400F40F0CF8002B0BF
:104C500010BD13F0010F06D010F4807F03D0226C3A
:104C600042F00102226413F0040F04D019B1226C47
:104C700042F00202226413F0020F04D019B1226C38
:104C800042F00402226413F0080F07D010F0200F46
:104C900000D119B1226C42F008022264226C002A71
:104CA000D5D013F0200F02D010F0200F21D12368AF
:104CB0005B6903F04003226C12F0080F00D123B3AC
:104CC0002046FFF72DFE23685A6912F0400F18D0D6
:104CD0005A6922F040025A61A36B73B1454A5A6384
:104CE000A06BFCF7CFFD0028B1D0A06B436B9847B9
:104CF000ADE72046FFF715FFD9E72046FFF707FF8E
:104D0000A5E72046FFF703FFA1E72046FFF7FFFED8
:104D1000002323649BE713F0100F8AD010F0100FCC
:104D200087D0002301931368019353680193019B7B
:104D3000536913F0400F31D0A16B0B685B689BB2D5
:104D4000002B84D0A08D984281D9E3858B69202BDC
:104D500008D1A18DE38D9BB2C91A89B22046FFF715
:104D6000DFFE74E7D36823F48073D360226853694D
:104D700023F0010353612268536923F04003536118
:104D8000202384F83E30002323632268D36823F075
:104D90001003D360A06BFCF753FDDAE7A38DE18D20
:104DA00089B25B1A99B2E38D9BB2002B3FF44FAFEF
:104DB00000293FF44CAFD36823F49073D36022688A
:104DC000536923F001035361202384F83E3000230C
:104DD00023632268D36823F01003D3602046FFF7D3
:104DE0009FFE34E72046FFF7B4FD30E72046FFF78B
:104DF00081FE2CE7114B0008034681628285C28543
:104E000000201864222283F83E2083F83C001968B1
:104E1000CA6842F48072CA6019684A6942F00102A5
:104E20004A611A68D36843F02003D360704708B51D
:104E300090F83E30DBB2202B0DD171B17AB190F8F1
:104E40003C30012B0DD0012380F83C30002303635C
:104E5000FFF7D2FF00E0022008BD0120FCE701209F
:104E6000FAE70220F8E7000030B583B00446164D9B
:104E7000EB6898476B6998476B6A6BB1AB6A5BB13B
:104E8000220C8DF80420220A8DF805208DF80640AA
:104E9000032101A898470BE00B4D2B6AC4F3074090
:104EA00098472B6AC4F3072098472B6AE0B29847CB
:104EB000054DEB6998470446AB6998472B699847BD
:104EC000204603B030BD00BF4800002070B582B05E
:104ED00004460E46164DEB6898476B69984744F0B8
:104EE0000404AB6AA3B1220C8DF80420220A8DF8C9
:104EF00005208DF806408DF8076004210DEB0100B8
:104F000098470B4CA36998472369984702B070BD36
:104F10002B6AC4F3074098472B6AC4F307209847CD
:104F20002B6AE0B298472B6A30469847E9E700BF02
:104F300048000020F0B583B004460E4615461B4FCE
:104F4000FB6898477B6998477B6A93B1BB6A83B1DA
:104F5000220C8DF80420220A8DF805208DF80640D9
:104F6000032101A89847114B5B6A294630469847B0
:104F700015E00E4F3B6AC4F3074098473B6AC4F301
:104F8000072098473B6AE0B29847002405E0074BAA
:104F9000DB69984730550134A4B2AC42F7D3034CD7
:104FA000A36998472369984703B0F0BD48000020E3
:104FB000F0B583B004460E4615461B4FFB68984774
:104FC0007B69984744F00404BB6AB3B1220C8DF8A6
:104FD0000420220A8DF805208DF80640032101A83F
:104FE0009847114B9B6A2946304698470E4CA36957
:104FF00098472369984703B0F0BD3B6AC4F3074064
:1050000098473B6AC4F3072098473B6AE0B2984749
:10501000002405E0044B1B6A305D98470134A4B2BC
:10502000AC42F7D3E2E700BF480000202DE9F04191
:105030000746002501E0A54220D04FEA870808F185
:1050400001084FEAC80808F500563046FFF70CFF84
:105050000402A4B208F504584046FFF705FF0444D3
:10506000A4B2002CE7D03046FFF7FEFE0502ADB239
:105070004046FFF7F9FE0544ADB2DCE72846BDE83F
:10508000F0812DE9F0410746002501E0A54220D03E
:105090004FEA870808F101084FEAC80808F51856D2
:1050A0003046FFF7E1FE0402A4B208F51C58404662
:1050B000FFF7DAFE0444A4B2002CE7D03046FFF735
:1050C000D3FE0502ADB24046FFF7CEFE0544ADB2B9
:1050D000DCE72846BDE8F08102B970472DE9F843C6
:1050E0000E461746840004F101094FEAC90909F583
:1050F00010584046FFF7B8FE0502ADB209F5145945
:105100004846FFF7B1FE0544ADB2A01CC0003A46C8
:10511000314600EB0520FFF74BFF79198CB2C1F344
:1051200007214046FFF7D2FEE1B24846FFF7CEFE28
:10513000BDE8F88302B970472DE9F8430E461746DB
:10514000840004F101094FEAC90909F520584046D5
:10515000FFF78AFE0502ADB209F524594846FFF76C
:1051600083FE0544ADB2E01CC0003A46314600EB78
:105170000520FFF7DFFE79198CB2C1F30721404605
:10518000FFF7A4FEE1B24846FFF7A0FEBDE8F883B2
:10519000082802D94FF0FF30704770B505468400EB
:1051A0000134E40004F5807610213046FFF78EFECE
:1051B0003046FFF759FE0028FAD11F2104F5007090
:1051C000FFF784FE0123AB40DB439BB20A490A8808
:1051D0001A400A80094A11880B4013800023084AAC
:1051E00022F81530074A535504F54070FFF73CFE8E
:1051F0000028F9D1012070BDC2250020C025002063
:10520000B0250020A8250020082800F294802DE970
:10521000F04182B005460F4690461E46012963D0F4
:105220004BB2002B00F08A808B1EDBB2022B00F207
:10523000888016F0040F40F087801EB1012F60D0E7
:10524000022F64D02846FFF7A3FFAC000134E4002E
:1052500026F00F0139432046FFF738FEB8F1000F62
:105260000AD13C4AB2F8008008F101039BB21380D6
:105270004FF6F072934259D04FEA182104F580603E
:10528000FFF724FE5FFA88F104F5A060FFF71EFE29
:1052900004F5807701213846FFF718FE3846FFF7FE
:1052A000E3FD0028FAD10123AB40DB439BB22A493E
:1052B0000A881A400A8006F00106AE4032430A808E
:1052C000264A11880B4013800023254A22F8153006
:1052D000244A535504F54070FFF7C6FD0028F9D065
:1052E00068B202B0BDE8F08104220DEB02014FF478
:1052F0007060FFF71FFE019B002B9AD16FF0020038
:10530000EFE716F0210F9DD16FF00500E9E716F0E9
:10531000200F02D016F0800F19D016F0100F91D088
:1053200016F0800F8ED16FF00500DAE7094B4FF4CD
:1053300040421A80A0E74FF0FF3070476FF0040042
:10534000CFE76FF00400CCE76FF00500C9E76FF01E
:105350000500C6E744000020C2250020C02500202B
:10536000B0250020A825002008282AD870B50546B9
:1053700084000134E4002046FFF776FD00F00F00C2
:10538000012821D104F540763046FFF76DFD132842
:105390001DD104F5807402212046FFF797FD2046B9
:1053A000FFF762FD0028FAD13046FFF75DFD1428B3
:1053B00001D1012070BD2846FFF7EAFE6FF003001F
:1053C000F8E74FF0FF3070476FF00400F2E76FF03E
:1053D0000200EFE7082838D870B50646840001348B
:1053E000E4002046FFF740FD00F00F0001282FD118
:1053F00004F5807508212846FFF768FD2846FFF769
:1054000033FD0028FAD10123B340DB431BB2134A1A
:1054100011880B401380124B1B88334113F0010F8E
:1054200019D104F54070FFF71FFD60B104F500705D
:10543000FFF71AFD10F0080FF3D03046FFF7A8FE73
:105440006FF00C0008E0012006E04FF0FF307047DD
:105450006FF0040000E0002070BD00BFC0250020F8
:10546000C225002008287ED82DE9F8430546894644
:10547000144687000137FF003846FFF7F5FC00F0BF
:105480000F00012872D1002C73D007F540784046F8
:10549000FFF7EAFC172801D01C286DD1384B1B8878
:1054A0002B4113F0010F19D007F500763046FFF7B6
:1054B000DBFC10F0100F05D110F0080F18D1002000
:1054C000BDE8F88310213046FFF700FD0123AB4013
:1054D000DB431BB22A4A11880B40138007F5F850B2
:1054E000FFF7C2FC8602B6B2B4420FD826460DE0E2
:1054F0002846FFF74DFE6FF00C00E1E72846FFF766
:1055000047FE6FF00600DBE7B44214D22846FFF7EF
:105510008DFD04464046FFF7A7FC172801D01C2844
:10552000ECD1184B1B882B4113F0010FECD0B44287
:10553000EAD20020C4E7324649462846FFF7CCFDB0
:1055400007F5807720213846FFF7C0FC3846FFF783
:105550008BFC0028FAD10123AB40094A11880B4388
:1055600013803046ACE74FF0FF3070476FF0040017
:10557000A6E76FF00D00A3E76FF00600A0E700BFFD
:10558000C0250020C225002008285FD82DE9F84357
:1055900005468846144686000136F6003046FFF779
:1055A00063FC00F00F00012853D1002C54D006F505
:1055B000F050FFF759FC8702BFB2BC420ED8274615
:1055C0000CE02846FFF7E4FD6FF006003CE02846BB
:1055D000FFF7DEFD6FF0060036E00CBB2846FFF754
:1055E00050FD044606F54070FFF73EFC17280DD02D
:1055F0001C28ECD1A4B92846FFF718FD814606F512
:10560000F850FFF731FCB9EB802FDAD0144B1B8830
:105610002B4113F0010FE0D0002CDED1002013E06D
:10562000BC4200D33C46224641462846FFF782FD55
:1056300006F5807640213046FFF748FC3046FFF7FC
:1056400013FC0028FAD12046BDE8F8834FF0FF3064
:1056500070476FF00400F7E76FF00D00F4E700BF4C
:10566000C225002070477047704770470078704728
:105670000170704700207047704770477047000006
:1056800020B119B1044A506191617047024B034A3D
:105690005A61034A9A617047480000206956000821
:1056A0006B560008084B1B8813F4007FFAD020B11A
:1056B00019B1054BD86119627047034B034ADA618F
:1056C000034A1A62704700BF480000207556000860
:1056D00079560008084B1B8813F4007FFAD020B1DC
:1056E00019B1054B586299627047034B034A5A62DD
:1056F000034A9A62704700BF480000207B560008AA
:105700007D56000800B587B0062201A94FF410604D
:10571000FFF710FC042205A94FF48070FFF70AFC84
:10572000042204A94FF4A060FFF704FC042203A99B
:105730004FF47060FFF7FEFB80210020FFF7C6FBEF
:105740000020FFF791FB062201A94FF41060FFF73C
:105750002FFC042205A94FF48070FFF729FC0422D6
:1057600004A94FF4A060FFF723FC042203A94FF41F
:105770007060FFF71DFC07B05DF804FB70B50546CF
:105780000E46FFF7BFFFCDB100221346072B07DC03
:10579000E95C0A4452B2102A2FDC01335BB2F5E710
:1057A000002409E0A0000130C000295D00F5F85098
:1057B000FFF78CFB013464B2072CF3DD5EB10022ED
:1057C0001346072B09DCF15C0A4452B2102A17DC9D
:1057D00001335BB2F5E700200EE0002409E0A000F1
:1057E0000130C000315D00F5F050FFF76FFB013470
:1057F00064B2072CF3DD002070BD4FF0FF30FBE7F3
:105800004FF0FF30F8E710B5040AC1B24FF4B050C2
:10581000FFF75CFB21464FF4C050FFF757FB10BD6C
:10582000B0F57A7F03DA002803DA002001E040F2C5
:10583000E730074B5863B1F57A7F03DA002903DAC2
:10584000002101E040F2E7314FF080439963704757
:105850000004004008B50F4B5B6B83B90E4A137808
:105860005B4213700B4B5B6B0B4A92F9002000FB01
:105870000230C0F579710331FFF7D2FF08BD054B47
:105880005A6B40F2E7339A42ECD1034A13785B42F9
:105890001370E7E7000400407400002070B5044670
:1058A0004FF0000E14E0032906D0062904D0102979
:1058B00002D00BE0042909D170BD0129FCD00529D3
:1058C000FAD00F29F8D001E00229F5D00EF1010E2F
:1058D000207F70451CDDA06950F82E000028EBD019
:1058E000B0F800C09445F1D8D5184688B444654551
:1058F000ECDC0579032DE9D801A656F825F000BFA8
:10590000A7580008B5580008BB580008C958000837
:105910000020D1E7844610B14FF6FF700FE07047CA
:1059200040080133DBB2072B07D810F0010FF7D086
:105930004AF2010282EA5000F3E7013989B249B123
:1059400000F47F431CF8012BC0B24240134498B2CC
:105950000023E8E7704783680088091A23F81120BC
:105960007047002800F0A7802DE9F04706464569FA
:10597000002D00F0A380027C012A14D0717F2B78C7
:10598000994240F09E8095F8019009F1FF33DBB217
:10599000052B0AD9A9F10F03DBB2012B00F2948089
:1059A000A879C41D02E00635E8E706243AB92F5D60
:1059B00021462846FFF7AEFF874240F08880736893
:1059C00003B19847B9F1030F10D0B9F1060F46D0D3
:1059D00049F080094FEA092949F00109A5F8029028
:1059E0000320337C012B5FD0BDE8F08795F803805E
:1059F000AB7848EA03286C792B7944EA03240FFA40
:105A000084FA2346424649463046FFF747FF074699
:105A100050B14FEA4A0A85F802A0F36813B1224652
:105A200041469847002315E049F42079A5F80190F4
:105A30000320D6E708EB030189B23A88891A89B2B4
:105A4000BA6832F811005A000332010A41EA002113
:105A5000A95201339C42EDDC60000330C1E7EF78CE
:105A6000AB7847EA032701233A4649463046FFF719
:105A700015FF804670B16B792A7943EA02223946D4
:105A8000FFF769FFB3681BB10122394640469847CA
:105A90002046A6E749F080094FEA092949F00209A2
:105AA000A5F8029003209CE7030243EA202325F88F
:105AB000023C063098E74FF0FF3070474FF0FF3060
:105AC00092E74FF0FF308FE74FF0FF308CE74FF059
:105AD000FF3089E7024B4FF480525A61704700BF94
